:1000000025C075C774C773C772C771C770C76FC77C
:100010006EC76DC76CC7E1C66AC769C768C767C7DF
:1000200066C765C764C763C762C7F2C460C75FC7F6
:100030005EC75DC7010001148001140116000EF0B7
:1000400001160118800118011A000EF211241FBEBA
:10005000CFEFD4E0DEBFCDBFE4E3F0E040E017C077
:10006000B591A59135912591059107FD0CC095910C
:100070008591EF01F92FE82F05900D92A217B30794
:10008000D9F7FE0104C01D92A217B307E1F7EC34C3
:0C009000F40731F703D000C0F894FFCF54
:10009C0080E057D681E055D68FE19EE40197F1F7C9
:1000AC0000C0000080E04DD682E04BD68FE39CE987
:1000BC000197F1F700C0000014B817B81AB89FEFF9
:1000CC0023ED80E3915020408040E1F700C0000018
:1000DC0017B886E084B98FEF8AB91BB88BB18064EE
:1000EC008BB98BB180688BB99FEF23ED80E3915076
:1000FC0020408040E1F700C000002AD4B7D584E04E
:10010C008093810084E294EF90938900809388001F
:10011C0082E080936F0010928500109284008BB166
:10012C008F7B8BB98BB18F778BB981E08093190161
:10013C0010921801789480911901813041F480E477
:10014C0080937C00EAE7F0E0808188ED80838091E9
:10015C001901823041F481E480937C00EAE7F0E0FD
:10016C00808188ED808380911901833041F482E491
:10017C0080937C00EAE7F0E0808188ED80838091B9
:10018C0019018430C1F6F894C0911801C11131C025
:10019C00C0901601D09017010D2C000CEE08FF0832
:1001AC00C701B601C9D49B01AC01609110017091DB
:1001BC00110180911201909113018FD678D49B017B
:1001CC00AC0177D620E030EC48E255E488D620E04C
:1001DC0030E040EB51E481D623ED3CEB4BE85FE3A0
:1001EC007ED6609308017093090180930A01909365
:1001FC000B01C13089F5C0901601D09017010D2C60
:10020C00000CEE08FF08C701B60196D49B01AC01A7
:10021C006091100170911101809112019091130164
:10022C005CD645D49B01AC0144D620E030EC48E2CE
:10023C0055E455D620E030E040EB51E44ED623EDAA
:10024C003CEB4BE85FE34BD66093040170930501E4
:10025C008093060190930701C23009F0C5C0C0908D
:10026C001601D09017010D2C000CEE08FF08C701E9
:10027C00B60162D49B01AC01609110017091110127
:10028C00809112019091130128D611D49B01AC01DD
:10029C0010D620E030EC48E255E421D620E030E0E6
:1002AC0040EB51E41AD623ED3CEB4BE85FE317D659
:1002BC006B017C016093000170930101809302013A
:1002CC0090930301609108017091090180910A01DA
:1002DC0090910B0120E030E048E452E4F3D5882300
:1002EC00C4F0609104017091050180910601909118
:1002FC00070120E030E048E452E4E4D588234CF0D8
:10030C0020E030E048E452E4C701B601DBD5882395
:10031C002CF4109215011092140101C048D4E090F5
:10032C001401F09015016091000170910101809110
:10033C00020190910301C1D52B013C016091040194
:10034C00709105018091060190910701B6D54B0182
:10035C005C01609108017091090180910A019091F2
:10036C000B01ABD5DC01CB019701A201B40154D038
:10037C001092180181E080931901C0900801D0906F
:10038C000901E0900A01F0900B0120E030E04CED07
:10039C0052E4C701B6019AD51816E4F420E030E017
:1003AC004EE653E4C701B6018DD588239CF485B184
:1003BC00826085B99FEF29E688E19150204080400A
:1003CC00E1F700C0000085B1846085B98BB1806411
:1003DC008BB910C085B18D7F85B985B18B7F85B9FF
:1003EC008BB18F7B8BB906C0CF5FC0931801CF5FE9
:1003FC00C09319011092170110921601109210015E
:10040C00109211011092120110921301109285009A
:08041C001092840078948FCE49
:100424003F924F925F926F927F928F929F92AF9280
:10043400BF92CF92DF92EF92FF920F931F93CF93CD
:10044400DF938C016B014A01590180E07ED481E085
:100454007CD48FE19EE40197F1F700C0000080E0B6
:1004640074D482E072D48FE19EE40197F1F700C066
:1004740000000F2EF4E6EF2EF12CF02DC801B70189
:10048400BDD40F2EF0E33F2EF02D360ECAE0D0E09F
:10049400BE01B4D40F2EF0E34F2EF02D460EC8014A
:1004A400BE01ACD40F2EF0E35F2EF02D580EC50123
:1004B400B701A4D40F2EF0E36F2EF02D660EBE010B
:1004C4009DD40F2EF0E37F2EF02D760EC501BE01D4
:1004D40095D40F2EF0E3BF2EF02DB80E88E035D45E
:1004E40080E033D48AEABCD481E3BAD48AE3B8D4B2
:1004F400832DB6D4842DB4D4852DB2D4C601B701CE
:100504007DD40F2EF0E3EF2EF02DE60EBE0176D44F
:100514000F2EF0E3FF2EF02DF60EC601BE016ED4B1
:10052400C0E3C80F80E29CD48AEA9AD482E398D4C8
:100534008AE396D48E2D94D48F2D92D48C2F90D47C
:1005440080E28ED480E28CD4055B11090B33110553
:1005540098F495EBC916D1047CF080EFC816D10449
:100564005CF495EB891691043CF080EF88169104B5
:100574001CF488E475D408C00B33110518F484EA1C
:100584006FD402C08FE46CD4C40164E670E036D446
:1005940010E3160F2AE030E0B90130D4D0E3D60FCF
:1005A400C401B9012BD4C0E3C80F8CE0CED380E0E2
:1005B400CCD38AEA55D483E353D48AE351D4812F2C
:1005C4004FD48D2F4DD48C2F4BD480E249D488EA5C
:1005D40047D4862D45D4872D43D48B2D41D480E236
:1005E4003FD484EA3DD483E680937C00EAE7F0E0DC
:1005F400808180EC80838FE19EE40197F1F700C055
:1006040000008091790061EA8602612D1124680F4F
:100614006595659565956595659587FD6395660F03
:10062400770B072E000C880B990B8AD26B017C0187
:1006340023E333E343E850E44DD488237CF520E0FE
:1006440030E040E850E4C701B60144D4181644F140
:1006540023E333E343E750E4C701B6013BD4181660
:100664000CF12DEC3CEC4CE650E4C701B60132D45D
:100674001816D4F026E636E646E650E4C701B6017D
:1006840029D418169CF026E636E646E450E4C70161
:10069400B60120D4181664F0D0E00BC0D3E609C02C
:1006A400D0E507C0D2E305C0DEE103C0DAE001C053
:1006B400D1E0C7E6DC02C12D1124C595C59580E3C0
:1006C4008C0FCED3CC0F8C2F880F880FC80F8D2F93
:1006D4008C1B805DC5D385E2C3D380E38D0FC0D36B
:1006E400DF91CF911F910F91FF90EF90DF90CF900A
:1006F400BF90AF909F908F907F906F905F904F903E
:040704003F90089585
:100708000BC0BDD340F0B4D330F021F45F3F19F0F3
:10071800CBC35111BCC3E0C3F4D298F39923C9F3F6
:100728005523B1F3951B550BBB27AA2762177307EF
:10073800840738F09F5F5F4F220F331F441FAA1FA3
:10074800A9F333D00E2E3AF0E0E830D09150504063
:10075800E695001CCAF729D0FE2F27D0660F771F11
:10076800881FBB1F261737074807AB07B0E809F0F3
:10077800BB0B802DBF01FF2793585F4F2AF09E3F88
:10078800510568F091C383C35F3FECF3983EDCF3F7
:10079800869577956795B795F7959F5FC9F7880F01
:1007A800911D9695879597F90895E1E0660F771F53
:1007B800881FBB1F621773078407BA0720F0621BE4
:0E07C800730B840BBA0BEE1F88F7E0950895B3
:1007D6000AC04FD328F054D318F0952309F065C307
:1007E6007CC3112455C38ED2A0F3959FD1F3950FE8
:1007F60050E0551F629FF001729FBB27F00DB11D9F
:10080600639FAA27F00DB11DAA1F649F6627B00D2E
:10081600A11D661F829F2227B00DA11D621F739F17
:10082600B00DA11D621F839FA00D611D221F749F25
:100836003327A00D611D231F849F600D211D822F6C
:10084600762F6A2F11249F5750408AF0E1F08823B3
:100856004AF0EE0FFF1FBB1F661F771F881F9150C0
:100866005040A9F79E3F510570F01FC311C35F3F6B
:10087600ECF3983EDCF3869577956795B795F795F3
:10088600E7959F5FC1F7FE2B880F911D969587957B
:0408960097F9089531
:10089A000DC0EDD230F0F2D220F031F49F3F11F4C6
:1008AA001EF419C30EF4E095E7FBFDC2E92F28D226
:1008BA0080F3BA17620773078407950718F071F473
:1008CA009EF5E3C20EF4E0950B2EBA2FA02D0B0174
:1008DA00B90190010C01CA01A0011124FF27591B7B
:1008EA0099F0593F50F4503E68F11A16F040A22F81
:1008FA00232F342F4427585FF3CF469537952795F2
:10090A00A795F0405395C9F77EF41F16BA0B620BF0
:10091A00730B840BBAF09150A1F0FF0FBB1F661F37
:10092A00771F881FC2F70EC0BA0F621F731F841F7A
:10093A0048F4879577956795B795F7959E3F08F0A0
:10094A00B3CF9395880F08F09927EE0F979587955F
:02095A000895FE
:10095C002FEF80E792E0215080409040E1F700C0FB
:10096C0000008BB182608BB98BB18E7F8BB92FEF6E
:10097C0080E792E0215080409040E1F700C00000F9
:10098C008BB180628BB98BB18F7D8BB92FEF80E7E8
:10099C0092E0215080409040E1F700C0000082E0DE
:1009AC00D0D188E0CED18FE19EE40197F1F700C061
:1009BC00000080E0C6D188E0C4D18FE19EE40197AD
:1009CC00F1F700C0000080E0BCD181E0BAD19FEF0C
:1009DC0020E782E0915020408040E1F700C0000009
:1009EC0080E0AFD18CE0ADD19FEF29EF80E091504A
:1009FC0020408040E1F700C0000088E0A2D180E0F8
:040A0C00A0D10895D8
:100A10001F920F920FB60F9211242F933F934F9373
:100A20005F936F937F938F939F93AF93BF93EF9356
:100A3000FF938091160190911701019690931701F1
:100A400080931601609178007091790080E090E0C9
:100A500077D02DEC3CEC4CE453E445D260930C0190
:100A600070930D0180930E0190930F019B01AC01D7
:100A70003CD29B01AC0160911001709111018091F9
:100A80001201909113011BD2609310017093110118
:100A90008093120190931301FF91EF91BF91AF9159
:100AA0009F918F917F916F915F914F913F912F9186
:0A0AB0000F900FBE0F901F901895D5
:100ABA0004C011F40EF40FC2C2C12AD1D0F3992393
:100ACA00D9F3CEF39F57550B87FFE6D10024A0E652
:100ADA0040EA900180585695979528F4805C660FF5
:100AEA00771F881F20F026173707480730F4621B44
:100AFA00730B840B202931294A2BA6951794079446
:100B0A00202531254A2758F7660F771F881F20F0BE
:100B1A0026173707480730F4620B730B840B200D36
:100B2A00311D411DA09581F7B901842F9158880F75
:060B3A00969587950895D1
:100B4000E89409C097FB3EF4909580957095619567
:100B50007F4F8F4F9F4F9923A9F0F92F96E9BB271D
:100B60009395F695879577956795B795F111F8CF99
:100B7000FAF4BB0F11F460FF1BC06F5F7F4F8F4F04
:100B80009F4F16C0882311F096E911C0772321F0FA
:100B90009EE8872F762F05C0662371F096E8862F92
:100BA00070E060E02AF09A95660F771F881FDAF7E9
:0A0BB000880F9695879597F9089530
:100BBA000CC080E480937C00EAE7F0E0808180EC5E
:100BCA00808385E38A95F1F70000809178009091FF
:100BDA007900459770F781E480937C00EAE7F0E0BA
:100BEA00808180EC808385E38A95F1F7000080910B
:100BFA007800909179004F973CF08BE790E09093C2
:100C0A00150180931401089584E890E090931501EA
:060C1A008093140108950F
:100C20007CD088F09F5790F0B92F9927B751A0F04A
:100C3000D1F0660F771F881F991F1AF0BA95C9F770
:100C400012C0B13081F026D1B1E0089523C1672FE1
:100C5000782F8827B85F39F0B93FCCF38695779520
:100C60006795B395D9F73EF4909580957095619509
:080C70007F4F8F4F9F4F089545
:100C780088E069D080E067D080EEF0D08FE6EED0D3
:100C880082EBECD080E7EAD08FE6E8D080E2E6D0CD
:100C98008EEBE4D08FE6E2D086EBE0D081E6DED0C2
:100CA8008BEBDCD08FE6DAD083EBD8D081E6D6D0D8
:0A0CB8008FEBD4D084ECD2D0089565
:100CC200990F0008550FAA0BE0E8FEEF161617065B
:100CD200E807F907C0F012161306E407F50798F0C3
:100CE200621B730B840B950B39F40A2661F0232BDC
:100CF200242B252B21F408950A2609F4A140A69558
:080D02008FEF811D811D089592
:100D0A0057FD9058440F551F59F05F3F71F04795B2
:100D1A00880F97FB991F61F09F3F79F08795089597
:100D2A00121613061406551FF2CF4695F1DF08C0B6
:100D3A00161617061806991FF1CF869571056105D3
:040D4A00089408956C
:100D4E009BB190629BB999B12BB1907C892B822B70
:100D5E008BB98FE891E00197F1F700C000008BB1DD
:100D6E00807C8BB98FE891E00197F1F700C000000D
:020D7E000895D6
:100D80009BB190639BB999B12BB1907C892B822B3D
:100D90008BB98FE891E00197F1F700C000008BB1AB
:100DA000807C8BB98FE891E00197F1F700C00000DB
:020DB0000895A4
:100DB200AA1BBB1B51E107C0AA1FBB1FA617B7077F
:100DC20010F0A61BB70B881F991F5A95A9F780959B
:080DD2009095BC01CD010895CC
:100DDA001F920F920FB60F9211248F9384E0809383
:100DEA00190110928500109284008F910F900FBE06
:060DFA000F901F901895F8
:100E000097FB072E16F4009406D077FD08D0D1DFAB
:100E100007FC05D03EF4909581959F4F08957095FD
:060E200061957F4F08956B
:100E2600092E0394000C11F4882352F0BB0F40F4F2
:100E3600BF2B11F460FF04C06F5F7F4F8F4F9F4F32
:020E460008950D
:100E48009F3F31F0915020F4879577956795B79536
:0C0E5800880F911D9695879597F90895D5
:100E6400CF93C82F82958F7089DF8C2F8F7086DF88
:040E7400CF9108957D
:0E0E780000240A941616170618060906089597
:0E0E860000240A941216130614060506089599
:0E0E9400E894BB2766277727CB0197F90895CE
:0E0EA20091505040660F771F881FD2F70895B9
:0C0EB00097F99F6780E870E060E008950B
:0A0EBC005058BB27AA27EBDCB0CF8B
:0A0EC600ACDE6894B111E4CF08958A
:080ED000F8DE08F481E008954A
:080ED800F4DE08F48FEF089529
:060EE0009FEF80EC089575
:040EE60010DC9ECFAF
:040EEA0075DC9CCF48
:020EEE0088C8B2
:020EF0007B0085
:010EF20001FE
:010EF30001FD
:00000001FF
